{
  "contractName": "Payment",
  "abi": [
    {
      "inputs": [],
      "stateMutability": "nonpayable",
      "type": "constructor"
    },
    {
      "anonymous": false,
      "inputs": [
        {
          "indexed": true,
          "internalType": "address",
          "name": "depositor",
          "type": "address"
        },
        {
          "indexed": true,
          "internalType": "address",
          "name": "tokenAddress",
          "type": "address"
        },
        {
          "indexed": false,
          "internalType": "uint256",
          "name": "amount",
          "type": "uint256"
        }
      ],
      "name": "Deposit",
      "type": "event"
    },
    {
      "anonymous": false,
      "inputs": [
        {
          "indexed": true,
          "internalType": "address",
          "name": "to",
          "type": "address"
        },
        {
          "indexed": true,
          "internalType": "address",
          "name": "tokenAddress",
          "type": "address"
        },
        {
          "indexed": false,
          "internalType": "uint256",
          "name": "amount",
          "type": "uint256"
        }
      ],
      "name": "Splitted",
      "type": "event"
    },
    {
      "anonymous": false,
      "inputs": [
        {
          "indexed": true,
          "internalType": "address",
          "name": "withdrawee",
          "type": "address"
        },
        {
          "indexed": true,
          "internalType": "address",
          "name": "tokenAddress",
          "type": "address"
        },
        {
          "indexed": false,
          "internalType": "uint256",
          "name": "amount",
          "type": "uint256"
        }
      ],
      "name": "Withdrawal",
      "type": "event"
    },
    {
      "stateMutability": "nonpayable",
      "type": "fallback"
    },
    {
      "inputs": [
        {
          "internalType": "address",
          "name": "_tokenAddress",
          "type": "address"
        },
        {
          "internalType": "uint256",
          "name": "_amount",
          "type": "uint256"
        }
      ],
      "name": "depositToken",
      "outputs": [],
      "stateMutability": "nonpayable",
      "type": "function"
    },
    {
      "inputs": [],
      "name": "depositEther",
      "outputs": [],
      "stateMutability": "payable",
      "type": "function"
    },
    {
      "inputs": [
        {
          "internalType": "address",
          "name": "_tokenAddress",
          "type": "address"
        },
        {
          "components": [
            {
              "internalType": "address",
              "name": "_recipient",
              "type": "address"
            },
            {
              "internalType": "uint256",
              "name": "_shareValue",
              "type": "uint256"
            },
            {
              "internalType": "uint256",
              "name": "_streamDuration",
              "type": "uint256"
            }
          ],
          "internalType": "struct Payment.TokenRecipient[]",
          "name": "_recipients",
          "type": "tuple[]"
        },
        {
          "internalType": "uint256",
          "name": "_amount",
          "type": "uint256"
        }
      ],
      "name": "splitToken",
      "outputs": [],
      "stateMutability": "nonpayable",
      "type": "function"
    },
    {
      "inputs": [
        {
          "internalType": "uint256",
          "name": "_amount",
          "type": "uint256"
        },
        {
          "internalType": "address",
          "name": "_tokenAddress",
          "type": "address"
        }
      ],
      "name": "withDraw",
      "outputs": [],
      "stateMutability": "nonpayable",
      "type": "function"
    },
    {
      "inputs": [
        {
          "internalType": "address",
          "name": "_holder",
          "type": "address"
        },
        {
          "internalType": "address",
          "name": "_tokenAddress",
          "type": "address"
        }
      ],
      "name": "getBalance",
      "outputs": [
        {
          "internalType": "uint256",
          "name": "",
          "type": "uint256"
        }
      ],
      "stateMutability": "view",
      "type": "function"
    },
    {
      "inputs": [
        {
          "internalType": "address",
          "name": "_tokenAddress",
          "type": "address"
        },
        {
          "components": [
            {
              "internalType": "address",
              "name": "_recipient",
              "type": "address"
            },
            {
              "internalType": "uint256",
              "name": "_shareValue",
              "type": "uint256"
            },
            {
              "internalType": "uint256",
              "name": "_streamDuration",
              "type": "uint256"
            }
          ],
          "internalType": "struct Payment.TokenRecipient[]",
          "name": "_recipients",
          "type": "tuple[]"
        },
        {
          "internalType": "uint256",
          "name": "_amount",
          "type": "uint256"
        }
      ],
      "name": "splitWithStream",
      "outputs": [],
      "stateMutability": "nonpayable",
      "type": "function"
    },
    {
      "inputs": [
        {
          "internalType": "uint256",
          "name": "_streamID",
          "type": "uint256"
        }
      ],
      "name": "withdrawFromStream",
      "outputs": [],
      "stateMutability": "nonpayable",
      "type": "function"
    }
  ],
  "bytecode": "0x608060405234801561001057600080fd5b5033600260006101000a81548173ffffffffffffffffffffffffffffffffffffffff021916908373ffffffffffffffffffffffffffffffffffffffff16021790555030600360006101000a81548173ffffffffffffffffffffffffffffffffffffffff021916908373ffffffffffffffffffffffffffffffffffffffff1602179055506000600460006101000a81548173ffffffffffffffffffffffffffffffffffffffff021916908373ffffffffffffffffffffffffffffffffffffffff160217905550611f2c806100e46000396000f3fe6080604052600436106100745760003560e01c8063845fb2111161004e578063845fb211146100ff57806398ea5fca14610128578063b09c5c3514610132578063d4fac45d1461015b57610075565b8063338b5dea146100845780633a597f48146100ad5780637d14a231146100d657610075565b5b34801561008157600080fd5b50005b34801561009057600080fd5b506100ab60048036038101906100a691906117a7565b610198565b005b3480156100b957600080fd5b506100d460048036038101906100cf91906117e7565b6103ee565b005b3480156100e257600080fd5b506100fd60048036038101906100f89190611879565b610768565b005b34801561010b57600080fd5b50610126600480360381019061012191906118ed565b610aa8565b005b610130610f6c565b005b34801561013e57600080fd5b5061015960048036038101906101549190611879565b61115b565b005b34801561016757600080fd5b50610182600480360381019061017d919061192d565b611683565b60405161018f919061197c565b60405180910390f35b600260009054906101000a900473ffffffffffffffffffffffffffffffffffffffff1673ffffffffffffffffffffffffffffffffffffffff163373ffffffffffffffffffffffffffffffffffffffff1614610228576040517f08c379a000000000000000000000000000000000000000000000000000000000815260040161021f906119f4565b60405180910390fd5b60008290508073ffffffffffffffffffffffffffffffffffffffff166323b872dd33600360009054906101000a900473ffffffffffffffffffffffffffffffffffffffff16856040518463ffffffff1660e01b815260040161028c93929190611a23565b6020604051808303816000875af11580156102ab573d6000803e3d6000fd5b505050506040513d601f19601f820116820180604052508101906102cf9190611a92565b5081600080600360009054906101000a900473ffffffffffffffffffffffffffffffffffffffff1673ffffffffffffffffffffffffffffffffffffffff1673ffffffffffffffffffffffffffffffffffffffff16815260200190815260200160002060008573ffffffffffffffffffffffffffffffffffffffff1673ffffffffffffffffffffffffffffffffffffffff168152602001908152602001600020600082825461037d9190611aee565b925050819055508273ffffffffffffffffffffffffffffffffffffffff163373ffffffffffffffffffffffffffffffffffffffff167f5548c837ab068cf56a2c2479df0882a4922fd203edb7517321831d95078c5f62846040516103e1919061197c565b60405180910390a3505050565b6000600160008381526020019081526020016000206040518060e001604052908160008201548152602001600182015481526020016002820154815260200160038201548152602001600482015481526020016005820160009054906101000a900473ffffffffffffffffffffffffffffffffffffffff1673ffffffffffffffffffffffffffffffffffffffff1673ffffffffffffffffffffffffffffffffffffffff1681526020016006820160009054906101000a900473ffffffffffffffffffffffffffffffffffffffff1673ffffffffffffffffffffffffffffffffffffffff1673ffffffffffffffffffffffffffffffffffffffff16815250509050600081608001514283604001516105059190611b44565b61050f9190611b78565b90508082606001511015610558576040517f08c379a000000000000000000000000000000000000000000000000000000000815260040161054f90611c1e565b60405180910390fd5b600460009054906101000a900473ffffffffffffffffffffffffffffffffffffffff1673ffffffffffffffffffffffffffffffffffffffff168260c0015173ffffffffffffffffffffffffffffffffffffffff1614156106685760008260a0015173ffffffffffffffffffffffffffffffffffffffff16826040516105dc90611c6f565b60006040518083038185875af1925050503d8060008114610619576040519150601f19603f3d011682016040523d82523d6000602084013e61061e565b606091505b5050905080610662576040517f08c379a000000000000000000000000000000000000000000000000000000000815260040161065990611cd0565b60405180910390fd5b506106f6565b60008260c0015190508073ffffffffffffffffffffffffffffffffffffffff1663a9059cbb8460a00151846040518363ffffffff1660e01b81526004016106b0929190611cf0565b6020604051808303816000875af11580156106cf573d6000803e3d6000fd5b505050506040513d601f19601f820116820180604052508101906106f39190611a92565b50505b8160c0015173ffffffffffffffffffffffffffffffffffffffff168260a0015173ffffffffffffffffffffffffffffffffffffffff167f2717ead6b9200dd235aad468c9809ea400fe33ac69b5bfaa6d3e90fc922b63988360405161075b919061197c565b60405180910390a3505050565b80600080600360009054906101000a900473ffffffffffffffffffffffffffffffffffffffff1673ffffffffffffffffffffffffffffffffffffffff1673ffffffffffffffffffffffffffffffffffffffff16815260200190815260200160002060008673ffffffffffffffffffffffffffffffffffffffff1673ffffffffffffffffffffffffffffffffffffffff168152602001908152602001600020541015610848576040517f08c379a000000000000000000000000000000000000000000000000000000000815260040161083f90611d65565b60405180910390fd5b60005b83839050811015610aa157600084848381811061086b5761086a611d85565b5b905060600201602001356064846108829190611de3565b61088c9190611b78565b9050806000808787868181106108a5576108a4611d85565b5b90506060020160000160208101906108bd9190611e14565b73ffffffffffffffffffffffffffffffffffffffff1673ffffffffffffffffffffffffffffffffffffffff16815260200190815260200160002060008873ffffffffffffffffffffffffffffffffffffffff1673ffffffffffffffffffffffffffffffffffffffff16815260200190815260200160002060008282546109439190611aee565b9250508190555080600080600360009054906101000a900473ffffffffffffffffffffffffffffffffffffffff1673ffffffffffffffffffffffffffffffffffffffff1673ffffffffffffffffffffffffffffffffffffffff16815260200190815260200160002060008873ffffffffffffffffffffffffffffffffffffffff1673ffffffffffffffffffffffffffffffffffffffff16815260200190815260200160002060008282546109f79190611b44565b925050819055508573ffffffffffffffffffffffffffffffffffffffff16858584818110610a2857610a27611d85565b5b9050606002016000016020810190610a409190611e14565b73ffffffffffffffffffffffffffffffffffffffff167f490350d803844f1284c5ca1d2052ebac49f0caa9544552498cdef4bbfe57d8ce83604051610a85919061197c565b60405180910390a3508080610a9990611e41565b91505061084b565b5050505050565b600460149054906101000a900460ff1615610af8576040517f08c379a0000000000000000000000000000000000000000000000000000000008152600401610aef90611ed6565b60405180910390fd5b6001600460146101000a81548160ff021916908315150217905550816000803373ffffffffffffffffffffffffffffffffffffffff1673ffffffffffffffffffffffffffffffffffffffff16815260200190815260200160002060008373ffffffffffffffffffffffffffffffffffffffff1673ffffffffffffffffffffffffffffffffffffffff168152602001908152602001600020541015610bd1576040517f08c379a0000000000000000000000000000000000000000000000000000000008152600401610bc890611c1e565b60405180910390fd5b600460009054906101000a900473ffffffffffffffffffffffffffffffffffffffff1673ffffffffffffffffffffffffffffffffffffffff168173ffffffffffffffffffffffffffffffffffffffff161415610dd05760003373ffffffffffffffffffffffffffffffffffffffff1683604051610c4d90611c6f565b60006040518083038185875af1925050503d8060008114610c8a576040519150601f19603f3d011682016040523d82523d6000602084013e610c8f565b606091505b5050905080610cd3576040517f08c379a0000000000000000000000000000000000000000000000000000000008152600401610cca90611cd0565b60405180910390fd5b826000803373ffffffffffffffffffffffffffffffffffffffff1673ffffffffffffffffffffffffffffffffffffffff16815260200190815260200160002060008473ffffffffffffffffffffffffffffffffffffffff1673ffffffffffffffffffffffffffffffffffffffff1681526020019081526020016000206000828254610d5e9190611b44565b925050819055508173ffffffffffffffffffffffffffffffffffffffff163373ffffffffffffffffffffffffffffffffffffffff167f2717ead6b9200dd235aad468c9809ea400fe33ac69b5bfaa6d3e90fc922b639885604051610dc2919061197c565b60405180910390a350610f4d565b60008190508073ffffffffffffffffffffffffffffffffffffffff1663a9059cbb33856040518363ffffffff1660e01b8152600401610e10929190611cf0565b6020604051808303816000875af1158015610e2f573d6000803e3d6000fd5b505050506040513d601f19601f82011682018060405250810190610e539190611a92565b50826000803373ffffffffffffffffffffffffffffffffffffffff1673ffffffffffffffffffffffffffffffffffffffff16815260200190815260200160002060008473ffffffffffffffffffffffffffffffffffffffff1673ffffffffffffffffffffffffffffffffffffffff1681526020019081526020016000206000828254610edf9190611b44565b925050819055508173ffffffffffffffffffffffffffffffffffffffff163373ffffffffffffffffffffffffffffffffffffffff167f2717ead6b9200dd235aad468c9809ea400fe33ac69b5bfaa6d3e90fc922b639885604051610f43919061197c565b60405180910390a3505b6000600460146101000a81548160ff0219169083151502179055505050565b600260009054906101000a900473ffffffffffffffffffffffffffffffffffffffff1673ffffffffffffffffffffffffffffffffffffffff163373ffffffffffffffffffffffffffffffffffffffff1614610ffc576040517f08c379a0000000000000000000000000000000000000000000000000000000008152600401610ff3906119f4565b60405180910390fd5b34600080600360009054906101000a900473ffffffffffffffffffffffffffffffffffffffff1673ffffffffffffffffffffffffffffffffffffffff1673ffffffffffffffffffffffffffffffffffffffff1681526020019081526020016000206000600460009054906101000a900473ffffffffffffffffffffffffffffffffffffffff1673ffffffffffffffffffffffffffffffffffffffff1673ffffffffffffffffffffffffffffffffffffffff16815260200190815260200160002060008282546110cb9190611aee565b92505081905550600460009054906101000a900473ffffffffffffffffffffffffffffffffffffffff1673ffffffffffffffffffffffffffffffffffffffff163373ffffffffffffffffffffffffffffffffffffffff167f5548c837ab068cf56a2c2479df0882a4922fd203edb7517321831d95078c5f6234604051611151919061197c565b60405180910390a3565b80600080600360009054906101000a900473ffffffffffffffffffffffffffffffffffffffff1673ffffffffffffffffffffffffffffffffffffffff1673ffffffffffffffffffffffffffffffffffffffff16815260200190815260200160002060008673ffffffffffffffffffffffffffffffffffffffff1673ffffffffffffffffffffffffffffffffffffffff16815260200190815260200160002054101561123b576040517f08c379a000000000000000000000000000000000000000000000000000000000815260040161123290611d65565b60405180910390fd5b60005b8383905081101561167c5760016005546112589190611aee565b600581905550600084848381811061127357611272611d85565b5b9050606002016020013560648461128a9190611de3565b6112949190611b78565b905060008585848181106112ab576112aa611d85565b5b90506060020160400135826112c09190611de3565b9050816000808888878181106112d9576112d8611d85565b5b90506060020160000160208101906112f19190611e14565b73ffffffffffffffffffffffffffffffffffffffff1673ffffffffffffffffffffffffffffffffffffffff16815260200190815260200160002060008973ffffffffffffffffffffffffffffffffffffffff1673ffffffffffffffffffffffffffffffffffffffff16815260200190815260200160002060008282546113779190611aee565b9250508190555081600080600360009054906101000a900473ffffffffffffffffffffffffffffffffffffffff1673ffffffffffffffffffffffffffffffffffffffff1673ffffffffffffffffffffffffffffffffffffffff16815260200190815260200160002060008973ffffffffffffffffffffffffffffffffffffffff1673ffffffffffffffffffffffffffffffffffffffff168152602001908152602001600020600082825461142b9190611b44565b925050819055506040518060e00160405280600554815260200187878681811061145857611457611d85565b5b90506060020160400135815260200187878681811061147a57611479611d85565b5b905060600201604001354261148f9190611aee565b81526020018381526020018281526020018787868181106114b3576114b2611d85565b5b90506060020160000160208101906114cb9190611e14565b73ffffffffffffffffffffffffffffffffffffffff1681526020018873ffffffffffffffffffffffffffffffffffffffff16815250600160006005548152602001908152602001600020600082015181600001556020820151816001015560408201518160020155606082015181600301556080820151816004015560a08201518160050160006101000a81548173ffffffffffffffffffffffffffffffffffffffff021916908373ffffffffffffffffffffffffffffffffffffffff16021790555060c08201518160060160006101000a81548173ffffffffffffffffffffffffffffffffffffffff021916908373ffffffffffffffffffffffffffffffffffffffff1602179055509050508673ffffffffffffffffffffffffffffffffffffffff1686868581811061160257611601611d85565b5b905060600201600001602081019061161a9190611e14565b73ffffffffffffffffffffffffffffffffffffffff167f490350d803844f1284c5ca1d2052ebac49f0caa9544552498cdef4bbfe57d8ce8460405161165f919061197c565b60405180910390a35050808061167490611e41565b91505061123e565b5050505050565b60008060008473ffffffffffffffffffffffffffffffffffffffff1673ffffffffffffffffffffffffffffffffffffffff16815260200190815260200160002060008373ffffffffffffffffffffffffffffffffffffffff1673ffffffffffffffffffffffffffffffffffffffff16815260200190815260200160002054905092915050565b600080fd5b600080fd5b600073ffffffffffffffffffffffffffffffffffffffff82169050919050565b600061173e82611713565b9050919050565b61174e81611733565b811461175957600080fd5b50565b60008135905061176b81611745565b92915050565b6000819050919050565b61178481611771565b811461178f57600080fd5b50565b6000813590506117a18161177b565b92915050565b600080604083850312156117be576117bd611709565b5b60006117cc8582860161175c565b92505060206117dd85828601611792565b9150509250929050565b6000602082840312156117fd576117fc611709565b5b600061180b84828501611792565b91505092915050565b600080fd5b600080fd5b600080fd5b60008083601f84011261183957611838611814565b5b8235905067ffffffffffffffff81111561185657611855611819565b5b6020830191508360608202830111156118725761187161181e565b5b9250929050565b6000806000806060858703121561189357611892611709565b5b60006118a18782880161175c565b945050602085013567ffffffffffffffff8111156118c2576118c161170e565b5b6118ce87828801611823565b935093505060406118e187828801611792565b91505092959194509250565b6000806040838503121561190457611903611709565b5b600061191285828601611792565b92505060206119238582860161175c565b9150509250929050565b6000806040838503121561194457611943611709565b5b60006119528582860161175c565b92505060206119638582860161175c565b9150509250929050565b61197681611771565b82525050565b6000602082019050611991600083018461196d565b92915050565b600082825260208201905092915050565b7f696e76616c69642073656e646572000000000000000000000000000000000000600082015250565b60006119de600e83611997565b91506119e9826119a8565b602082019050919050565b60006020820190508181036000830152611a0d816119d1565b9050919050565b611a1d81611733565b82525050565b6000606082019050611a386000830186611a14565b611a456020830185611a14565b611a52604083018461196d565b949350505050565b60008115159050919050565b611a6f81611a5a565b8114611a7a57600080fd5b50565b600081519050611a8c81611a66565b92915050565b600060208284031215611aa857611aa7611709565b5b6000611ab684828501611a7d565b91505092915050565b7f4e487b7100000000000000000000000000000000000000000000000000000000600052601160045260246000fd5b6000611af982611771565b9150611b0483611771565b9250827fffffffffffffffffffffffffffffffffffffffffffffffffffffffffffffffff03821115611b3957611b38611abf565b5b828201905092915050565b6000611b4f82611771565b9150611b5a83611771565b925082821015611b6d57611b6c611abf565b5b828203905092915050565b6000611b8382611771565b9150611b8e83611771565b9250817fffffffffffffffffffffffffffffffffffffffffffffffffffffffffffffffff0483118215151615611bc757611bc6611abf565b5b828202905092915050565b7f696e73756666696369656e742062616c616e6365000000000000000000000000600082015250565b6000611c08601483611997565b9150611c1382611bd2565b602082019050919050565b60006020820190508181036000830152611c3781611bfb565b9050919050565b600081905092915050565b50565b6000611c59600083611c3e565b9150611c6482611c49565b600082019050919050565b6000611c7a82611c4c565b9150819050919050565b7f4661696c656420746f2072656c65617365204574686572000000000000000000600082015250565b6000611cba601783611997565b9150611cc582611c84565b602082019050919050565b60006020820190508181036000830152611ce981611cad565b9050919050565b6000604082019050611d056000830185611a14565b611d12602083018461196d565b9392505050565b7f696e73756666696369656e7420616d6f756e7420746f2073706c697400000000600082015250565b6000611d4f601c83611997565b9150611d5a82611d19565b602082019050919050565b60006020820190508181036000830152611d7e81611d42565b9050919050565b7f4e487b7100000000000000000000000000000000000000000000000000000000600052603260045260246000fd5b7f4e487b7100000000000000000000000000000000000000000000000000000000600052601260045260246000fd5b6000611dee82611771565b9150611df983611771565b925082611e0957611e08611db4565b5b828204905092915050565b600060208284031215611e2a57611e29611709565b5b6000611e388482850161175c565b91505092915050565b6000611e4c82611771565b91507fffffffffffffffffffffffffffffffffffffffffffffffffffffffffffffffff821415611e7f57611e7e611abf565b5b600182019050919050565b7f6e6f2072652d656e7472616e6379000000000000000000000000000000000000600082015250565b6000611ec0600e83611997565b9150611ecb82611e8a565b602082019050919050565b60006020820190508181036000830152611eef81611eb3565b905091905056fea2646970667358221220a513fa4c15b015d340de1c2ad3c33dc2f973ea5f2e7d81f8fa779201a2bd051164736f6c634300080a0033",
  "immutableReferences": {},
  "source": "pragma solidity 0.8.10;\n\n//  SPDX-License-Identifier: UNLICENSED\n\n/// @title  Token Split Contract\n\n/*  \n    *       @dev    This is a  smart contract that split ETHER and ERC 20 tokens to\n    *       addresses based on their shares allocation\n*/     \n\n\nimport \"./utils/IERC20.sol\";\n\ncontract Payment {\n\n\n\n    fallback () external  {\n\n    }\n\n      \n    /// @dev mapping the store the ether and erc20 token balances      \n\n    mapping(address => mapping(address => uint256)) private _tokenBalances;\n    mapping(uint256 => Stream) private _streams;\n\n\n\n    address private splitter;                           //  declare the address of the splitter\n    address private _contractAddress;                   //  declare the address of the contract\n    address private _etherAddress;                      //  declare the address of ether\n    bool private _locked;                               //  declare the variable to be used in reentrancy modifier\n    uint256 private _streamId;                          //  ID to keep track of every allocated stream\n\n    /// @dev TokenRecipeint struct is used to track the recipient and the allocation of shares of the recipient during split\n\n    struct TokenRecipient {\n\n        address _recipient;\n        uint256 _shareValue;\n        uint256 _streamDuration;\n\n    }\n\n    struct Stream {\n\n        uint256 _id;\n        uint256 _duration;\n        uint256 _endTime;\n        uint256 _totalAmount;\n        uint256 _amountPerSeconds;\n        address _recipient;\n        address _tokenAddress;\n\n\n    }\n\n\n    modifier onlySplitter() {\n\n        require(msg.sender == splitter, \"invalid sender\");\n        _;\n\n    }\n\n\n    /// @notice locked = true\n    /// @dev    when an attacker calls the withdraw or refund function, the function is set to locked. It will only be unlocked when the function runs to the end\n    /// @dev    locked = false after the withdraw or refund function finishes executing\n\n    modifier noReEntrancy() {\n\n        require(!_locked, \"no re-entrancy\");\n        _locked = true;\n        _;\n        _locked = false;\n    }\n\n\n    constructor () {\n\n        splitter = msg.sender;\n        _contractAddress = address(this);\n        _etherAddress = address(0);\n\n    }\n\n    /// @param  _tokenAddress is the address of the ERC20 token that will be deposited\n    /// @param  _amount is the amount of tokens to be deposited by the splitter\n    /// @notice IERC20 _tokenToDeposit = IERC20(_token). Creates an instance of the method of the token contract\n    /// @notice _tokenToDeposit.transferFrom. This contract must have been approved for successful function call\n\n    function depositToken(address _tokenAddress, uint256 _amount) external onlySplitter {\n\n        IERC20 _tokenToDeposit = IERC20(_tokenAddress);\n        _tokenToDeposit.transferFrom(msg.sender, _contractAddress, _amount);\n        _tokenBalances[_contractAddress][_tokenAddress] += _amount;\n        emit Deposit(msg.sender, _tokenAddress, _amount);\n\n    }\n\n\n    /// @dev Function to deposit ether from the splitter\n\n    function depositEther() external payable onlySplitter {\n\n        _tokenBalances[_contractAddress][_etherAddress] += msg.value;\n        emit Deposit(msg.sender, _etherAddress, msg.value);\n    }\n\n\n    /// @dev    function to split tokens to recipient addresses based on the percentage of shares allocated to them\n    /// @dev    The token isn't transferred to their wallets yet, but it is transferred to their token balance in the contract\n    /// @param  _tokenAddress is the address of the token (ERC20 or ETHER) that will be splitted to the recipients' balances\n    /// @param  _recipients is an array of Struct that contains the address and the share percentage of each recipients\n    /// @param  _amount is amount of tokens from which every recipients will be issued tokens.This is the amount to be splitted among the recipients\n\n    function splitToken(address _tokenAddress, TokenRecipient[] calldata _recipients, uint256 _amount) external {\n        \n        require(_tokenBalances[_contractAddress][_tokenAddress] >= _amount, \"insufficient amount to split\");\n\n        for (uint256 index = 0; index < _recipients.length; index++) {\n\n            uint256 _amountToSplitToAddress = (_amount / 100 ) * _recipients[index]._shareValue;\n            _tokenBalances[_recipients[index]._recipient][_tokenAddress] += _amountToSplitToAddress;\n            _tokenBalances[_contractAddress][_tokenAddress] -= _amountToSplitToAddress;\n            emit Splitted(_recipients[index]._recipient, _tokenAddress, _amountToSplitToAddress);\n\n        }\n\n    }\n\n\n    /// @dev  Withdraw function to be called by recipients. Calling this function sends the token to their wallet address\n    /// @notice that re entrancy attack is blocked\n    /// @param _amount is that amount of tokens (ERC20 or ETHER) to be withdrawn by the recipient\n    /// @param _tokenAddress is the address of the token (ERC20 or ETHER) where the token will be withdrawn from\n\n    function withDraw(uint256 _amount, address _tokenAddress) external noReEntrancy {\n\n        require(_tokenBalances[msg.sender][_tokenAddress] >= _amount, \"insufficient balance\");\n\n        if (_tokenAddress == _etherAddress) {\n\n            (bool sent, ) = payable(msg.sender).call{value: _amount}(\"\");\n            require(sent, \"Failed to release Ether\");\n            _tokenBalances[msg.sender][_tokenAddress] -= _amount;\n            emit Withdrawal(msg.sender, _tokenAddress, _amount);\n\n        } else {\n            IERC20 _tokenToWithdrawFrom = IERC20(_tokenAddress);\n            _tokenToWithdrawFrom.transfer(msg.sender, _amount);\n            _tokenBalances[msg.sender][_tokenAddress] -= _amount;\n            emit Withdrawal(msg.sender, _tokenAddress, _amount);\n        }\n\n\n       \n\n        \n    }\n\n    /// @param  _holder is the address of the an holder whose balance is to be checked\n    /// @param  _tokenAddress is token address of the token balance to be checked\n    /// @return the token balance of the holder\n\n    function getBalance(address _holder, address _tokenAddress) external view returns (uint256) {\n        return _tokenBalances[_holder][_tokenAddress];\n    }\n\n\n    function splitWithStream (address _tokenAddress, TokenRecipient[] calldata _recipients, uint256 _amount) external {\n\n        \n        require(_tokenBalances[_contractAddress][_tokenAddress] >= _amount, \"insufficient amount to split\");\n\n        for (uint256 index = 0; index < _recipients.length; index++) {\n\n            _streamId = _streamId + 1;  \n            uint256 _amountToSplitToAddress = (_amount / 100 ) * _recipients[index]._shareValue;\n            uint256 _amountToWithDrawPerSeconds = _amountToSplitToAddress / _recipients[index]._streamDuration;\n            _tokenBalances[_recipients[index]._recipient][_tokenAddress] += _amountToSplitToAddress;\n            _tokenBalances[_contractAddress][_tokenAddress] -= _amountToSplitToAddress;\n\n            _streams[_streamId] = Stream (\n\n                                    _streamId, \n                                    _recipients[index]._streamDuration, \n                                    block.timestamp + _recipients[index]._streamDuration,  \n                                    _amountToSplitToAddress,\n                                    _amountToWithDrawPerSeconds, \n                                    _recipients[index]._recipient,\n                                    _tokenAddress\n                                );\n\n            emit Splitted(_recipients[index]._recipient, _tokenAddress, _amountToSplitToAddress);\n\n        }\n\n    }\n\n\n    function withdrawFromStream(uint256 _streamID) external {\n\n        Stream memory _stream = _streams[_streamID];\n        uint256 _amountToWithDraw = (_stream._endTime - block.timestamp) * _stream._amountPerSeconds;\n        require(_stream._totalAmount >= _amountToWithDraw, \"insufficient balance\");\n\n        if(_stream._tokenAddress == _etherAddress) {\n\n            (bool sent, ) = payable(_stream._recipient).call{value: _amountToWithDraw}(\"\");\n            require(sent, \"Failed to release Ether\");\n\n        }   else {\n\n            IERC20 _tokenToWithdrawFrom = IERC20(_stream._tokenAddress);\n            _tokenToWithdrawFrom.transfer(_stream._recipient, _amountToWithDraw);\n\n        }\n        \n        emit Withdrawal (_stream._recipient, _stream._tokenAddress, _amountToWithDraw);\n\n    }\n\n\n    \n\n\n\n    \n\n\n    event Deposit (address indexed depositor, address indexed tokenAddress, uint256 amount);\n    event Withdrawal (address indexed withdrawee, address indexed tokenAddress, uint256 amount);\n    event Splitted  (address indexed to, address indexed tokenAddress, uint256 amount); \n\n    \n\n}",
  "sourcePath": "/home/komolehin/Documents/blockchain/Liquality Task/contracts/Payment.sol",
  "compiler": {
    "name": "solc",
    "version": "0.8.10+commit.fc410830.Emscripten.clang"
  },
  "schemaVersion": "3.4.6",
  "updatedAt": "2022-04-13T19:21:56.027Z",
  "devdoc": {
    "kind": "dev",
    "methods": {
      "depositEther()": {
        "details": "Function to deposit ether from the splitter"
      },
      "depositToken(address,uint256)": {
        "params": {
          "_amount": "is the amount of tokens to be deposited by the splitter",
          "_tokenAddress": "is the address of the ERC20 token that will be deposited"
        }
      },
      "getBalance(address,address)": {
        "params": {
          "_holder": "is the address of the an holder whose balance is to be checked",
          "_tokenAddress": "is token address of the token balance to be checked"
        },
        "returns": {
          "_0": "the token balance of the holder"
        }
      },
      "splitToken(address,(address,uint256,uint256)[],uint256)": {
        "details": "function to split tokens to recipient addresses based on the percentage of shares allocated to themThe token isn't transferred to their wallets yet, but it is transferred to their token balance in the contract",
        "params": {
          "_amount": "is amount of tokens from which every recipients will be issued tokens.This is the amount to be splitted among the recipients",
          "_recipients": "is an array of Struct that contains the address and the share percentage of each recipients",
          "_tokenAddress": "is the address of the token (ERC20 or ETHER) that will be splitted to the recipients' balances"
        }
      },
      "withDraw(uint256,address)": {
        "details": "Withdraw function to be called by recipients. Calling this function sends the token to their wallet address",
        "params": {
          "_amount": "is that amount of tokens (ERC20 or ETHER) to be withdrawn by the recipient",
          "_tokenAddress": "is the address of the token (ERC20 or ETHER) where the token will be withdrawn from"
        }
      }
    },
    "stateVariables": {
      "_tokenBalances": {
        "details": "mapping the store the ether and erc20 token balances      "
      }
    },
    "version": 1
  },
  "userdoc": {
    "kind": "user",
    "methods": {
      "depositToken(address,uint256)": {
        "notice": "IERC20 _tokenToDeposit = IERC20(_token). Creates an instance of the method of the token contract_tokenToDeposit.transferFrom. This contract must have been approved for successful function call"
      },
      "withDraw(uint256,address)": {
        "notice": "that re entrancy attack is blocked"
      }
    },
    "version": 1
  }
}