{
  "contractName": "TokenSplit",
  "abi": [
    {
      "inputs": [
        {
          "internalType": "address",
          "name": "_splitter",
          "type": "address"
        }
      ],
      "stateMutability": "nonpayable",
      "type": "constructor"
    },
    {
      "stateMutability": "payable",
      "type": "fallback"
    },
    {
      "inputs": [
        {
          "internalType": "address",
          "name": "_tokenAddress",
          "type": "address"
        },
        {
          "internalType": "uint256",
          "name": "_amount",
          "type": "uint256"
        }
      ],
      "name": "depositToken",
      "outputs": [],
      "stateMutability": "nonpayable",
      "type": "function"
    },
    {
      "inputs": [],
      "name": "depositEther",
      "outputs": [],
      "stateMutability": "payable",
      "type": "function"
    },
    {
      "inputs": [
        {
          "internalType": "address",
          "name": "_tokenAddress",
          "type": "address"
        },
        {
          "components": [
            {
              "internalType": "address",
              "name": "_recipient",
              "type": "address"
            },
            {
              "internalType": "uint256",
              "name": "_shareValue",
              "type": "uint256"
            }
          ],
          "internalType": "struct TokenSplit.TokenRecipient[]",
          "name": "_recipients",
          "type": "tuple[]"
        },
        {
          "internalType": "uint256",
          "name": "_amount",
          "type": "uint256"
        }
      ],
      "name": "splitToken",
      "outputs": [],
      "stateMutability": "nonpayable",
      "type": "function"
    },
    {
      "inputs": [
        {
          "internalType": "uint256",
          "name": "_amount",
          "type": "uint256"
        },
        {
          "internalType": "address",
          "name": "_tokenAddress",
          "type": "address"
        }
      ],
      "name": "withDraw",
      "outputs": [],
      "stateMutability": "nonpayable",
      "type": "function"
    }
  ],
  "bytecode": "0x60806040523480156200001157600080fd5b50604051620013ac380380620013ac83398181016040528101906200003791906200016c565b80600160006101000a81548173ffffffffffffffffffffffffffffffffffffffff021916908373ffffffffffffffffffffffffffffffffffffffff16021790555030600260006101000a81548173ffffffffffffffffffffffffffffffffffffffff021916908373ffffffffffffffffffffffffffffffffffffffff1602179055506000600360006101000a81548173ffffffffffffffffffffffffffffffffffffffff021916908373ffffffffffffffffffffffffffffffffffffffff160217905550506200019e565b600080fd5b600073ffffffffffffffffffffffffffffffffffffffff82169050919050565b6000620001348262000107565b9050919050565b620001468162000127565b81146200015257600080fd5b50565b60008151905062000166816200013b565b92915050565b60006020828403121562000185576200018462000102565b5b6000620001958482850162000155565b91505092915050565b6111fe80620001ae6000396000f3fe6080604052600436106100435760003560e01c806318e0e44a14610046578063338b5dea1461006f578063845fb2111461009857806398ea5fca146100c157610044565b5b005b34801561005257600080fd5b5061006d60048036038101906100689190610bc1565b6100cb565b005b34801561007b57600080fd5b5061009660048036038101906100919190610c35565b610371565b005b3480156100a457600080fd5b506100bf60048036038101906100ba9190610c75565b610562565b005b6100c9610956565b005b80600080600260009054906101000a900473ffffffffffffffffffffffffffffffffffffffff1673ffffffffffffffffffffffffffffffffffffffff1673ffffffffffffffffffffffffffffffffffffffff16815260200190815260200160002060008673ffffffffffffffffffffffffffffffffffffffff1673ffffffffffffffffffffffffffffffffffffffff1681526020019081526020016000205410156101ab576040517f08c379a00000000000000000000000000000000000000000000000000000000081526004016101a290610d12565b60405180910390fd5b60005b8383905081101561036a57600060648585848181106101d0576101cf610d32565b5b905060400201602001356101e49190610dbf565b9050806000808787868181106101fd576101fc610d32565b5b90506040020160000160208101906102159190610df0565b73ffffffffffffffffffffffffffffffffffffffff1673ffffffffffffffffffffffffffffffffffffffff16815260200190815260200160002060008873ffffffffffffffffffffffffffffffffffffffff1673ffffffffffffffffffffffffffffffffffffffff168152602001908152602001600020600082825461029b9190610e1d565b9250508190555080600080600260009054906101000a900473ffffffffffffffffffffffffffffffffffffffff1673ffffffffffffffffffffffffffffffffffffffff1673ffffffffffffffffffffffffffffffffffffffff16815260200190815260200160002060008873ffffffffffffffffffffffffffffffffffffffff1673ffffffffffffffffffffffffffffffffffffffff168152602001908152602001600020600082825461034f9190610e73565b9250508190555050808061036290610ea7565b9150506101ae565b5050505050565b600160009054906101000a900473ffffffffffffffffffffffffffffffffffffffff1673ffffffffffffffffffffffffffffffffffffffff163373ffffffffffffffffffffffffffffffffffffffff1614610401576040517f08c379a00000000000000000000000000000000000000000000000000000000081526004016103f890610f3b565b60405180910390fd5b60008290508073ffffffffffffffffffffffffffffffffffffffff166323b872dd33600260009054906101000a900473ffffffffffffffffffffffffffffffffffffffff16856040518463ffffffff1660e01b815260040161046593929190610f79565b6020604051808303816000875af1158015610484573d6000803e3d6000fd5b505050506040513d601f19601f820116820180604052508101906104a89190610fe8565b5081600080600260009054906101000a900473ffffffffffffffffffffffffffffffffffffffff1673ffffffffffffffffffffffffffffffffffffffff1673ffffffffffffffffffffffffffffffffffffffff16815260200190815260200160002060008573ffffffffffffffffffffffffffffffffffffffff1673ffffffffffffffffffffffffffffffffffffffff16815260200190815260200160002060008282546105569190610e1d565b92505081905550505050565b600360149054906101000a900460ff16156105b2576040517f08c379a00000000000000000000000000000000000000000000000000000000081526004016105a990611061565b60405180910390fd5b6001600360146101000a81548160ff021916908315150217905550816000803373ffffffffffffffffffffffffffffffffffffffff1673ffffffffffffffffffffffffffffffffffffffff16815260200190815260200160002060008373ffffffffffffffffffffffffffffffffffffffff1673ffffffffffffffffffffffffffffffffffffffff16815260200190815260200160002054101561068b576040517f08c379a0000000000000000000000000000000000000000000000000000000008152600401610682906110cd565b60405180910390fd5b600360009054906101000a900473ffffffffffffffffffffffffffffffffffffffff1673ffffffffffffffffffffffffffffffffffffffff168173ffffffffffffffffffffffffffffffffffffffff16036108205760003373ffffffffffffffffffffffffffffffffffffffff16836040516107069061111e565b60006040518083038185875af1925050503d8060008114610743576040519150601f19603f3d011682016040523d82523d6000602084013e610748565b606091505b505090508061078c576040517f08c379a00000000000000000000000000000000000000000000000000000000081526004016107839061117f565b60405180910390fd5b826000803373ffffffffffffffffffffffffffffffffffffffff1673ffffffffffffffffffffffffffffffffffffffff16815260200190815260200160002060008473ffffffffffffffffffffffffffffffffffffffff1673ffffffffffffffffffffffffffffffffffffffff16815260200190815260200160002060008282546108179190610e73565b92505081905550505b60008190508073ffffffffffffffffffffffffffffffffffffffff1663a9059cbb33856040518363ffffffff1660e01b815260040161086092919061119f565b6020604051808303816000875af115801561087f573d6000803e3d6000fd5b505050506040513d601f19601f820116820180604052508101906108a39190610fe8565b50826000803373ffffffffffffffffffffffffffffffffffffffff1673ffffffffffffffffffffffffffffffffffffffff16815260200190815260200160002060008473ffffffffffffffffffffffffffffffffffffffff1673ffffffffffffffffffffffffffffffffffffffff168152602001908152602001600020600082825461092f9190610e73565b92505081905550506000600360146101000a81548160ff0219169083151502179055505050565b600160009054906101000a900473ffffffffffffffffffffffffffffffffffffffff1673ffffffffffffffffffffffffffffffffffffffff163373ffffffffffffffffffffffffffffffffffffffff16146109e6576040517f08c379a00000000000000000000000000000000000000000000000000000000081526004016109dd90610f3b565b60405180910390fd5b34600080600260009054906101000a900473ffffffffffffffffffffffffffffffffffffffff1673ffffffffffffffffffffffffffffffffffffffff1673ffffffffffffffffffffffffffffffffffffffff1681526020019081526020016000206000600360009054906101000a900473ffffffffffffffffffffffffffffffffffffffff1673ffffffffffffffffffffffffffffffffffffffff1673ffffffffffffffffffffffffffffffffffffffff1681526020019081526020016000206000828254610ab59190610e1d565b92505081905550565b600080fd5b600080fd5b600073ffffffffffffffffffffffffffffffffffffffff82169050919050565b6000610af382610ac8565b9050919050565b610b0381610ae8565b8114610b0e57600080fd5b50565b600081359050610b2081610afa565b92915050565b600080fd5b600080fd5b600080fd5b60008083601f840112610b4b57610b4a610b26565b5b8235905067ffffffffffffffff811115610b6857610b67610b2b565b5b602083019150836040820283011115610b8457610b83610b30565b5b9250929050565b6000819050919050565b610b9e81610b8b565b8114610ba957600080fd5b50565b600081359050610bbb81610b95565b92915050565b60008060008060608587031215610bdb57610bda610abe565b5b6000610be987828801610b11565b945050602085013567ffffffffffffffff811115610c0a57610c09610ac3565b5b610c1687828801610b35565b93509350506040610c2987828801610bac565b91505092959194509250565b60008060408385031215610c4c57610c4b610abe565b5b6000610c5a85828601610b11565b9250506020610c6b85828601610bac565b9150509250929050565b60008060408385031215610c8c57610c8b610abe565b5b6000610c9a85828601610bac565b9250506020610cab85828601610b11565b9150509250929050565b600082825260208201905092915050565b7f696e73756666696369656e7420616d6f756e7420746f2073706c697400000000600082015250565b6000610cfc601c83610cb5565b9150610d0782610cc6565b602082019050919050565b60006020820190508181036000830152610d2b81610cef565b9050919050565b7f4e487b7100000000000000000000000000000000000000000000000000000000600052603260045260246000fd5b7f4e487b7100000000000000000000000000000000000000000000000000000000600052601260045260246000fd5b7f4e487b7100000000000000000000000000000000000000000000000000000000600052601160045260246000fd5b6000610dca82610b8b565b9150610dd583610b8b565b925082610de557610de4610d61565b5b828204905092915050565b600060208284031215610e0657610e05610abe565b5b6000610e1484828501610b11565b91505092915050565b6000610e2882610b8b565b9150610e3383610b8b565b9250827fffffffffffffffffffffffffffffffffffffffffffffffffffffffffffffffff03821115610e6857610e67610d90565b5b828201905092915050565b6000610e7e82610b8b565b9150610e8983610b8b565b925082821015610e9c57610e9b610d90565b5b828203905092915050565b6000610eb282610b8b565b91507fffffffffffffffffffffffffffffffffffffffffffffffffffffffffffffffff8203610ee457610ee3610d90565b5b600182019050919050565b7f696e76616c69642073656e646572000000000000000000000000000000000000600082015250565b6000610f25600e83610cb5565b9150610f3082610eef565b602082019050919050565b60006020820190508181036000830152610f5481610f18565b9050919050565b610f6481610ae8565b82525050565b610f7381610b8b565b82525050565b6000606082019050610f8e6000830186610f5b565b610f9b6020830185610f5b565b610fa86040830184610f6a565b949350505050565b60008115159050919050565b610fc581610fb0565b8114610fd057600080fd5b50565b600081519050610fe281610fbc565b92915050565b600060208284031215610ffe57610ffd610abe565b5b600061100c84828501610fd3565b91505092915050565b7f6e6f2072652d656e7472616e6379000000000000000000000000000000000000600082015250565b600061104b600e83610cb5565b915061105682611015565b602082019050919050565b6000602082019050818103600083015261107a8161103e565b9050919050565b7f696e73756666696369656e742062616c616e6365000000000000000000000000600082015250565b60006110b7601483610cb5565b91506110c282611081565b602082019050919050565b600060208201905081810360008301526110e6816110aa565b9050919050565b600081905092915050565b50565b60006111086000836110ed565b9150611113826110f8565b600082019050919050565b6000611129826110fb565b9150819050919050565b7f4661696c656420746f2072656c65617365204574686572000000000000000000600082015250565b6000611169601783610cb5565b915061117482611133565b602082019050919050565b600060208201905081810360008301526111988161115c565b9050919050565b60006040820190506111b46000830185610f5b565b6111c16020830184610f6a565b939250505056fea2646970667358221220dc2361ca6150f1cffb781bacc9f3a4ec346081e1f2d1c67cd93cab6f7342172764736f6c634300080d0033",
  "immutableReferences": {},
  "source": "pragma solidity 0.8.13;\n\n// SPDX-License-Identifier: MIT\n\n/// @title  Token Split Contract\n\n/*  \n    *       @dev    This is a  smart contract that split ETHER and ERC 20 tokens to\n    *       addresses based on their shares allocation\n*/     \n\n\nimport \"./utils/IERC20.sol\";\n\ncontract TokenSplit {\n\n\n\n    fallback () external payable {\n\n    }\n\n      \n    /// @dev mapping the store the ether and erc20 token balances      \n\n    mapping(address => mapping(address => uint256)) private _tokenBalances;\n\n\n\n    address private splitter;                           //  declare the address of the splitter\n    address private _contractAddress;                   //  declare the address of the contract\n    address private _etherAddress;                      //  declare the address of ether\n    bool private _locked;                               //  declare the variable to be used in reentrancy modifier\n\n\n    /// @dev TokenRecipeint struct is used to track the recipient and the allocation of shares of the recipient during split\n\n    struct TokenRecipient {\n\n        address _recipient;\n        uint256 _shareValue;\n\n    }\n\n\n    modifier onlySplitter() {\n\n        require(msg.sender == splitter, \"invalid sender\");\n        _;\n\n    }\n\n\n    /// @notice locked = true\n    /// @dev    when an attacker calls the withdraw or refund function, the function is set to locked. It will only be unlocked when the function runs to the end\n    /// @dev    locked = false after the withdraw or refund function finishes executing\n\n    modifier noReEntrancy() {\n\n        require(!_locked, \"no re-entrancy\");\n        _locked = true;\n        _;\n        _locked = false;\n    }\n\n\n    constructor (address _splitter) {\n\n        splitter = _splitter;\n        _contractAddress = address(this);\n        _etherAddress = address(0);\n\n    }\n\n    /// @param  _tokenAddress is the address of the ERC20 token that will be deposited\n    /// @param  _amount is the amount of tokens to be deposited by the splitter\n    /// @notice IERC20 _tokenToDeposit = IERC20(_token). Creates an instance of the method of the token contract\n    /// @notice _tokenToDeposit.transferFrom. This contract must have been approved for successful function call\n\n    function depositToken(address _tokenAddress, uint256 _amount) external onlySplitter {\n\n        IERC20 _tokenToDeposit = IERC20(_tokenAddress);\n        _tokenToDeposit.transferFrom(msg.sender, _contractAddress, _amount);\n        _tokenBalances[_contractAddress][_tokenAddress] += _amount;\n\n    }\n\n\n    /// @dev Function to deposit ether from the splitter\n\n    function depositEther() external payable onlySplitter {\n\n        _tokenBalances[_contractAddress][_etherAddress] += msg.value;\n\n    }\n\n\n    /// @dev    function to split tokens to recipient addresses based on the percentage of shares allocated to them\n    /// @dev    The token isn't transferred to their wallets yet, but it is transferred to their token balance in the contract\n    /// @param  _tokenAddress is the address of the token (ERC20 or ETHER) that will be splitted to the recipients' balances\n    /// @param  _recipients is an array of Struct that contains the address and the share percentage of each recipients\n    /// @param  _amount is amount of tokens from which every recipients will be issued tokens.This is the amount to be splitted among the recipients\n\n    function splitToken(address _tokenAddress, TokenRecipient[] calldata _recipients, uint256 _amount) external {\n        \n        require(_tokenBalances[_contractAddress][_tokenAddress] >= _amount, \"insufficient amount to split\");\n\n        for (uint256 index = 0; index < _recipients.length; index++) {\n\n            uint256 _amountToSplitToAddress = _recipients[index]._shareValue / 100;\n            _tokenBalances[_recipients[index]._recipient][_tokenAddress] += _amountToSplitToAddress;\n            _tokenBalances[_contractAddress][_tokenAddress] -= _amountToSplitToAddress;\n            \n\n        }\n\n    }\n\n\n    /// @dev  Withdraw function to be called by recipients. Calling this function sends the token to their wallet address\n    /// @notice that re entrancy attack is blocked\n    /// @param _amount is that amount of tokens (ERC20 or ETHER) to be withdrawn by the recipient\n    /// @param _tokenAddress is the address of the token (ERC20 or ETHER) where the token will be withdrawn from\n\n    function withDraw(uint256 _amount, address _tokenAddress) external noReEntrancy{\n\n        require(_tokenBalances[msg.sender][_tokenAddress] >= _amount, \"insufficient balance\");\n\n        if (_tokenAddress == _etherAddress) {\n\n            (bool sent, ) = payable(msg.sender).call{value: _amount}(\"\");\n            require(sent, \"Failed to release Ether\");\n            _tokenBalances[msg.sender][_tokenAddress] -= _amount;\n\n        }\n\n        IERC20 _tokenToWithdrawFrom = IERC20(_tokenAddress);\n        _tokenToWithdrawFrom.transfer(msg.sender, _amount);\n        _tokenBalances[msg.sender][_tokenAddress] -= _amount;\n\n    }\n\n    \n\n}",
  "sourcePath": "/home/komolehin/Documents/blockchain/Liquality Task/contracts/TokenSplit.sol",
  "compiler": {
    "name": "solc",
    "version": "0.8.13+commit.abaa5c0e.Emscripten.clang"
  },
  "schemaVersion": "3.4.6",
  "updatedAt": "2022-04-12T19:51:26.246Z",
  "devdoc": {
    "kind": "dev",
    "methods": {
      "depositEther()": {
        "details": "Function to deposit ether from the splitter"
      },
      "depositToken(address,uint256)": {
        "params": {
          "_amount": "is the amount of tokens to be deposited by the splitter",
          "_tokenAddress": "is the address of the ERC20 token that will be deposited"
        }
      },
      "splitToken(address,(address,uint256)[],uint256)": {
        "details": "function to split tokens to recipient addresses based on the percentage of shares allocated to themThe token isn't transferred to their wallets yet, but it is transferred to their token balance in the contract",
        "params": {
          "_amount": "is amount of tokens from which every recipients will be issued tokens.This is the amount to be splitted among the recipients",
          "_recipients": "is an array of Struct that contains the address and the share percentage of each recipients",
          "_tokenAddress": "is the address of the token (ERC20 or ETHER) that will be splitted to the recipients' balances"
        }
      },
      "withDraw(uint256,address)": {
        "details": "Withdraw function to be called by recipients. Calling this function sends the token to their wallet address",
        "params": {
          "_amount": "is that amount of tokens (ERC20 or ETHER) to be withdrawn by the recipient",
          "_tokenAddress": "is the address of the token (ERC20 or ETHER) where the token will be withdrawn from"
        }
      }
    },
    "stateVariables": {
      "_tokenBalances": {
        "details": "mapping the store the ether and erc20 token balances      "
      }
    },
    "version": 1
  },
  "userdoc": {
    "kind": "user",
    "methods": {
      "depositToken(address,uint256)": {
        "notice": "IERC20 _tokenToDeposit = IERC20(_token). Creates an instance of the method of the token contract_tokenToDeposit.transferFrom. This contract must have been approved for successful function call"
      },
      "withDraw(uint256,address)": {
        "notice": "that re entrancy attack is blocked"
      }
    },
    "version": 1
  }
}