{
  "contractName": "TokenSplit",
  "abi": [
    {
      "inputs": [
        {
          "internalType": "address",
          "name": "_splitter",
          "type": "address"
        }
      ],
      "stateMutability": "nonpayable",
      "type": "constructor"
    },
    {
      "stateMutability": "payable",
      "type": "fallback"
    },
    {
      "inputs": [
        {
          "internalType": "address",
          "name": "_tokenAddress",
          "type": "address"
        },
        {
          "internalType": "uint256",
          "name": "_amount",
          "type": "uint256"
        }
      ],
      "name": "depositToken",
      "outputs": [],
      "stateMutability": "nonpayable",
      "type": "function"
    },
    {
      "inputs": [],
      "name": "depositEther",
      "outputs": [],
      "stateMutability": "payable",
      "type": "function"
    },
    {
      "inputs": [
        {
          "internalType": "address",
          "name": "_tokenAddress",
          "type": "address"
        },
        {
          "components": [
            {
              "internalType": "address",
              "name": "_recipient",
              "type": "address"
            },
            {
              "internalType": "uint256",
              "name": "_shareValue",
              "type": "uint256"
            }
          ],
          "internalType": "struct TokenSplit.TokenRecipient[]",
          "name": "_recipients",
          "type": "tuple[]"
        },
        {
          "internalType": "uint256",
          "name": "_amount",
          "type": "uint256"
        }
      ],
      "name": "splitToken",
      "outputs": [],
      "stateMutability": "nonpayable",
      "type": "function"
    }
  ],
  "bytecode": "0x608060405234801561001057600080fd5b50604051610d11380380610d118339818101604052810190610032919061015f565b80600160006101000a81548173ffffffffffffffffffffffffffffffffffffffff021916908373ffffffffffffffffffffffffffffffffffffffff16021790555030600260006101000a81548173ffffffffffffffffffffffffffffffffffffffff021916908373ffffffffffffffffffffffffffffffffffffffff1602179055506000600360006101000a81548173ffffffffffffffffffffffffffffffffffffffff021916908373ffffffffffffffffffffffffffffffffffffffff1602179055505061018c565b600080fd5b600073ffffffffffffffffffffffffffffffffffffffff82169050919050565b600061012c82610101565b9050919050565b61013c81610121565b811461014757600080fd5b50565b60008151905061015981610133565b92915050565b600060208284031215610175576101746100fc565b5b60006101838482850161014a565b91505092915050565b610b768061019b6000396000f3fe6080604052600436106100385760003560e01c806318e0e44a1461003b578063338b5dea1461006457806398ea5fca1461008d57610039565b5b005b34801561004757600080fd5b50610062600480360381019061005d91906106dd565b610097565b005b34801561007057600080fd5b5061008b60048036038101906100869190610751565b610281565b005b610095610472565b005b80600080600260009054906101000a900473ffffffffffffffffffffffffffffffffffffffff1673ffffffffffffffffffffffffffffffffffffffff1673ffffffffffffffffffffffffffffffffffffffff16815260200190815260200160002060008673ffffffffffffffffffffffffffffffffffffffff1673ffffffffffffffffffffffffffffffffffffffff168152602001908152602001600020541015610177576040517f08c379a000000000000000000000000000000000000000000000000000000000815260040161016e906107ee565b60405180910390fd5b600084905060005b84849050811015610279578173ffffffffffffffffffffffffffffffffffffffff1663a9059cbb8686848181106101b9576101b861080e565b5b90506040020160000160208101906101d1919061083d565b60648888868181106101e6576101e561080e565b5b905060400201602001356101fa91906108c8565b8661020591906108f9565b6040518363ffffffff1660e01b8152600401610222929190610971565b6020604051808303816000875af1158015610241573d6000803e3d6000fd5b505050506040513d601f19601f8201168201806040525081019061026591906109d2565b508080610271906109ff565b91505061017f565b505050505050565b600160009054906101000a900473ffffffffffffffffffffffffffffffffffffffff1673ffffffffffffffffffffffffffffffffffffffff163373ffffffffffffffffffffffffffffffffffffffff1614610311576040517f08c379a000000000000000000000000000000000000000000000000000000000815260040161030890610a93565b60405180910390fd5b60008290508073ffffffffffffffffffffffffffffffffffffffff166323b872dd33600260009054906101000a900473ffffffffffffffffffffffffffffffffffffffff16856040518463ffffffff1660e01b815260040161037593929190610ab3565b6020604051808303816000875af1158015610394573d6000803e3d6000fd5b505050506040513d601f19601f820116820180604052508101906103b891906109d2565b5081600080600260009054906101000a900473ffffffffffffffffffffffffffffffffffffffff1673ffffffffffffffffffffffffffffffffffffffff1673ffffffffffffffffffffffffffffffffffffffff16815260200190815260200160002060008573ffffffffffffffffffffffffffffffffffffffff1673ffffffffffffffffffffffffffffffffffffffff16815260200190815260200160002060008282546104669190610aea565b92505081905550505050565b600160009054906101000a900473ffffffffffffffffffffffffffffffffffffffff1673ffffffffffffffffffffffffffffffffffffffff163373ffffffffffffffffffffffffffffffffffffffff1614610502576040517f08c379a00000000000000000000000000000000000000000000000000000000081526004016104f990610a93565b60405180910390fd5b34600080600260009054906101000a900473ffffffffffffffffffffffffffffffffffffffff1673ffffffffffffffffffffffffffffffffffffffff1673ffffffffffffffffffffffffffffffffffffffff1681526020019081526020016000206000600360009054906101000a900473ffffffffffffffffffffffffffffffffffffffff1673ffffffffffffffffffffffffffffffffffffffff1673ffffffffffffffffffffffffffffffffffffffff16815260200190815260200160002060008282546105d19190610aea565b92505081905550565b600080fd5b600080fd5b600073ffffffffffffffffffffffffffffffffffffffff82169050919050565b600061060f826105e4565b9050919050565b61061f81610604565b811461062a57600080fd5b50565b60008135905061063c81610616565b92915050565b600080fd5b600080fd5b600080fd5b60008083601f84011261066757610666610642565b5b8235905067ffffffffffffffff81111561068457610683610647565b5b6020830191508360408202830111156106a05761069f61064c565b5b9250929050565b6000819050919050565b6106ba816106a7565b81146106c557600080fd5b50565b6000813590506106d7816106b1565b92915050565b600080600080606085870312156106f7576106f66105da565b5b60006107058782880161062d565b945050602085013567ffffffffffffffff811115610726576107256105df565b5b61073287828801610651565b93509350506040610745878288016106c8565b91505092959194509250565b60008060408385031215610768576107676105da565b5b60006107768582860161062d565b9250506020610787858286016106c8565b9150509250929050565b600082825260208201905092915050565b7f696e73756666696369656e7420616d6f756e7420746f2073706c697400000000600082015250565b60006107d8601c83610791565b91506107e3826107a2565b602082019050919050565b60006020820190508181036000830152610807816107cb565b9050919050565b7f4e487b7100000000000000000000000000000000000000000000000000000000600052603260045260246000fd5b600060208284031215610853576108526105da565b5b60006108618482850161062d565b91505092915050565b7f4e487b7100000000000000000000000000000000000000000000000000000000600052601260045260246000fd5b7f4e487b7100000000000000000000000000000000000000000000000000000000600052601160045260246000fd5b60006108d3826106a7565b91506108de836106a7565b9250826108ee576108ed61086a565b5b828204905092915050565b6000610904826106a7565b915061090f836106a7565b9250817fffffffffffffffffffffffffffffffffffffffffffffffffffffffffffffffff048311821515161561094857610947610899565b5b828202905092915050565b61095c81610604565b82525050565b61096b816106a7565b82525050565b60006040820190506109866000830185610953565b6109936020830184610962565b9392505050565b60008115159050919050565b6109af8161099a565b81146109ba57600080fd5b50565b6000815190506109cc816109a6565b92915050565b6000602082840312156109e8576109e76105da565b5b60006109f6848285016109bd565b91505092915050565b6000610a0a826106a7565b91507fffffffffffffffffffffffffffffffffffffffffffffffffffffffffffffffff8203610a3c57610a3b610899565b5b600182019050919050565b7f696e76616c69642073656e646572000000000000000000000000000000000000600082015250565b6000610a7d600e83610791565b9150610a8882610a47565b602082019050919050565b60006020820190508181036000830152610aac81610a70565b9050919050565b6000606082019050610ac86000830186610953565b610ad56020830185610953565b610ae26040830184610962565b949350505050565b6000610af5826106a7565b9150610b00836106a7565b9250827fffffffffffffffffffffffffffffffffffffffffffffffffffffffffffffffff03821115610b3557610b34610899565b5b82820190509291505056fea2646970667358221220ff9daec61a8e88f8111fcb3ef81734c999ca76957b1f07f152d8a95fda3132c364736f6c634300080d0033",
  "immutableReferences": {},
  "source": "pragma solidity 0.8.13;\n\n/// @title  Token Split Contract\n\n/*  \n    *       @dev    This is a  smart contract that split ETHER and ERC 20 tokens to\n    *       addresses based on their shares allocation\n*/     \n\n\nimport \"./utils/IERC20.sol\";\n\ncontract TokenSplit {\n\n    fallback () external payable {\n\n    }\n\n    /// @dev mapping to store token shares allocated to an address\n\n    //mapping(address => mapping(address => uint256)) private _shares;   \n\n\n    /// @dev mapping the store the ether and erc20 token balances      \n\n    mapping(address => mapping(address => uint256)) private _tokenBalances;\n\n    /// @dev  declare the address of the splitter\n\n    address private splitter;\n\n    /// @dev  declare the address of the contract\n\n    address private _contractAddress;\n\n    /// @dev  declare the address of ether\n\n    address private _etherAddress;\n\n\n    /// @dev ToeknRecipeint struct is used to track the recipient and the allocation of shares of the recipient during split\n\n    struct TokenRecipient {\n\n        address _recipient;\n        uint256 _shareValue;\n\n    }\n\n\n    modifier onlySplitter() {\n\n        require(msg.sender == splitter, \"invalid sender\");\n        _;\n\n    }\n\n\n    constructor (address _splitter) {\n\n        splitter = _splitter;\n        _contractAddress = address(this);\n        _etherAddress = address(0);\n\n    }\n\n    /// @param  _tokenAddress is the address of the ERC20 token that will be deposited\n    /// @param  _amount is the amount of tokens to be deposited by the splitter\n    /// @notice IERC20 _tokenToDeposit = IERC20(_token). Creates an instance of the method of the token contract\n    /// @notice _tokenToDeposit.transferFrom. This contract must have been approved for successful function call\n\n    function depositToken(address _tokenAddress, uint256 _amount) external onlySplitter {\n\n        IERC20 _tokenToDeposit = IERC20(_tokenAddress);\n        _tokenToDeposit.transferFrom(msg.sender, _contractAddress, _amount);\n        _tokenBalances[_contractAddress][_tokenAddress] += _amount;\n\n    }\n\n    function depositEther() external payable onlySplitter {\n\n        _tokenBalances[_contractAddress][_etherAddress] += msg.value;\n\n    }\n\n    function splitToken(address _tokenAddress, TokenRecipient[] calldata _recipients, uint256 _amount) external {\n        \n        require(_tokenBalances[_contractAddress][_tokenAddress] >= _amount, \"insufficient amount to split\");\n\n        IERC20 _tokenToSplitFrom = IERC20(_tokenAddress);\n        \n        for (uint256 index = 0; index < _recipients.length; index++) {\n\n            _tokenToSplitFrom.transfer(_recipients[index]._recipient, _amount * (_recipients[index]._shareValue / 100));\n\n        }\n\n    }\n\n    \n\n}",
  "sourcePath": "/home/komolehin/Documents/blockchain/Liquality Task/contracts/TokenSplit.sol",
  "compiler": {
    "name": "solc",
    "version": "0.8.13+commit.abaa5c0e.Emscripten.clang"
  },
  "schemaVersion": "3.4.6",
  "updatedAt": "2022-04-12T19:09:04.616Z",
  "devdoc": {
    "kind": "dev",
    "methods": {
      "depositToken(address,uint256)": {
        "params": {
          "_amount": "is the amount of tokens to be deposited by the splitter",
          "_tokenAddress": "is the address of the ERC20 token that will be deposited"
        }
      }
    },
    "stateVariables": {
      "_contractAddress": {
        "details": "declare the address of the contract"
      },
      "_etherAddress": {
        "details": "declare the address of ether"
      },
      "_tokenBalances": {
        "details": "mapping the store the ether and erc20 token balances      "
      },
      "splitter": {
        "details": "declare the address of the splitter"
      }
    },
    "version": 1
  },
  "userdoc": {
    "kind": "user",
    "methods": {
      "depositToken(address,uint256)": {
        "notice": "IERC20 _tokenToDeposit = IERC20(_token). Creates an instance of the method of the token contract_tokenToDeposit.transferFrom. This contract must have been approved for successful function call"
      }
    },
    "version": 1
  }
}