{
  "contractName": "TokenSplit",
  "abi": [
    {
      "inputs": [
        {
          "internalType": "address",
          "name": "_splitter",
          "type": "address"
        }
      ],
      "stateMutability": "nonpayable",
      "type": "constructor"
    },
    {
      "stateMutability": "payable",
      "type": "fallback"
    },
    {
      "inputs": [
        {
          "internalType": "address",
          "name": "_tokenAddress",
          "type": "address"
        },
        {
          "internalType": "uint256",
          "name": "_amount",
          "type": "uint256"
        }
      ],
      "name": "depositToken",
      "outputs": [],
      "stateMutability": "nonpayable",
      "type": "function"
    },
    {
      "inputs": [],
      "name": "depositEther",
      "outputs": [],
      "stateMutability": "payable",
      "type": "function"
    },
    {
      "inputs": [
        {
          "internalType": "address",
          "name": "_tokenAddress",
          "type": "address"
        },
        {
          "components": [
            {
              "internalType": "address",
              "name": "_recipient",
              "type": "address"
            },
            {
              "internalType": "uint256",
              "name": "_shareValue",
              "type": "uint256"
            }
          ],
          "internalType": "struct TokenSplit.TokenRecipient[]",
          "name": "_recipients",
          "type": "tuple[]"
        },
        {
          "internalType": "uint256",
          "name": "_amount",
          "type": "uint256"
        }
      ],
      "name": "splitToken",
      "outputs": [],
      "stateMutability": "nonpayable",
      "type": "function"
    }
  ],
  "bytecode": "0x608060405234801561001057600080fd5b50604051610f3a380380610f3a8339818101604052810190610032919061015f565b80600160006101000a81548173ffffffffffffffffffffffffffffffffffffffff021916908373ffffffffffffffffffffffffffffffffffffffff16021790555030600260006101000a81548173ffffffffffffffffffffffffffffffffffffffff021916908373ffffffffffffffffffffffffffffffffffffffff1602179055506000600360006101000a81548173ffffffffffffffffffffffffffffffffffffffff021916908373ffffffffffffffffffffffffffffffffffffffff1602179055505061018c565b600080fd5b600073ffffffffffffffffffffffffffffffffffffffff82169050919050565b600061012c82610101565b9050919050565b61013c81610121565b811461014757600080fd5b50565b60008151905061015981610133565b92915050565b600060208284031215610175576101746100fc565b5b60006101838482850161014a565b91505092915050565b610d9f8061019b6000396000f3fe6080604052600436106100385760003560e01c806318e0e44a1461003b578063338b5dea1461006457806398ea5fca1461008d57610039565b5b005b34801561004757600080fd5b50610062600480360381019061005d9190610854565b610097565b005b34801561007057600080fd5b5061008b600480360381019061008691906108c8565b6103f8565b005b6100956105e9565b005b80600080600260009054906101000a900473ffffffffffffffffffffffffffffffffffffffff1673ffffffffffffffffffffffffffffffffffffffff1673ffffffffffffffffffffffffffffffffffffffff16815260200190815260200160002060008673ffffffffffffffffffffffffffffffffffffffff1673ffffffffffffffffffffffffffffffffffffffff168152602001908152602001600020541015610177576040517f08c379a000000000000000000000000000000000000000000000000000000000815260040161016e90610965565b60405180910390fd5b600360009054906101000a900473ffffffffffffffffffffffffffffffffffffffff1673ffffffffffffffffffffffffffffffffffffffff168473ffffffffffffffffffffffffffffffffffffffff16036102ee5760005b838390508110156102ec5760008484838181106101ef576101ee610985565b5b905060400201600001602081019061020791906109b4565b73ffffffffffffffffffffffffffffffffffffffff16606486868581811061023257610231610985565b5b905060400201602001356102469190610a3f565b60405161025290610aa1565b60006040518083038185875af1925050503d806000811461028f576040519150601f19603f3d011682016040523d82523d6000602084013e610294565b606091505b50509050806102d8576040517f08c379a00000000000000000000000000000000000000000000000000000000081526004016102cf90610b02565b60405180910390fd5b5080806102e490610b22565b9150506101cf565b505b600084905060005b848490508110156103f0578173ffffffffffffffffffffffffffffffffffffffff1663a9059cbb8686848181106103305761032f610985565b5b905060400201600001602081019061034891906109b4565b606488888681811061035d5761035c610985565b5b905060400201602001356103719190610a3f565b8661037c9190610b6a565b6040518363ffffffff1660e01b8152600401610399929190610be2565b6020604051808303816000875af11580156103b8573d6000803e3d6000fd5b505050506040513d601f19601f820116820180604052508101906103dc9190610c43565b5080806103e890610b22565b9150506102f6565b505050505050565b600160009054906101000a900473ffffffffffffffffffffffffffffffffffffffff1673ffffffffffffffffffffffffffffffffffffffff163373ffffffffffffffffffffffffffffffffffffffff1614610488576040517f08c379a000000000000000000000000000000000000000000000000000000000815260040161047f90610cbc565b60405180910390fd5b60008290508073ffffffffffffffffffffffffffffffffffffffff166323b872dd33600260009054906101000a900473ffffffffffffffffffffffffffffffffffffffff16856040518463ffffffff1660e01b81526004016104ec93929190610cdc565b6020604051808303816000875af115801561050b573d6000803e3d6000fd5b505050506040513d601f19601f8201168201806040525081019061052f9190610c43565b5081600080600260009054906101000a900473ffffffffffffffffffffffffffffffffffffffff1673ffffffffffffffffffffffffffffffffffffffff1673ffffffffffffffffffffffffffffffffffffffff16815260200190815260200160002060008573ffffffffffffffffffffffffffffffffffffffff1673ffffffffffffffffffffffffffffffffffffffff16815260200190815260200160002060008282546105dd9190610d13565b92505081905550505050565b600160009054906101000a900473ffffffffffffffffffffffffffffffffffffffff1673ffffffffffffffffffffffffffffffffffffffff163373ffffffffffffffffffffffffffffffffffffffff1614610679576040517f08c379a000000000000000000000000000000000000000000000000000000000815260040161067090610cbc565b60405180910390fd5b34600080600260009054906101000a900473ffffffffffffffffffffffffffffffffffffffff1673ffffffffffffffffffffffffffffffffffffffff1673ffffffffffffffffffffffffffffffffffffffff1681526020019081526020016000206000600360009054906101000a900473ffffffffffffffffffffffffffffffffffffffff1673ffffffffffffffffffffffffffffffffffffffff1673ffffffffffffffffffffffffffffffffffffffff16815260200190815260200160002060008282546107489190610d13565b92505081905550565b600080fd5b600080fd5b600073ffffffffffffffffffffffffffffffffffffffff82169050919050565b60006107868261075b565b9050919050565b6107968161077b565b81146107a157600080fd5b50565b6000813590506107b38161078d565b92915050565b600080fd5b600080fd5b600080fd5b60008083601f8401126107de576107dd6107b9565b5b8235905067ffffffffffffffff8111156107fb576107fa6107be565b5b602083019150836040820283011115610817576108166107c3565b5b9250929050565b6000819050919050565b6108318161081e565b811461083c57600080fd5b50565b60008135905061084e81610828565b92915050565b6000806000806060858703121561086e5761086d610751565b5b600061087c878288016107a4565b945050602085013567ffffffffffffffff81111561089d5761089c610756565b5b6108a9878288016107c8565b935093505060406108bc8782880161083f565b91505092959194509250565b600080604083850312156108df576108de610751565b5b60006108ed858286016107a4565b92505060206108fe8582860161083f565b9150509250929050565b600082825260208201905092915050565b7f696e73756666696369656e7420616d6f756e7420746f2073706c697400000000600082015250565b600061094f601c83610908565b915061095a82610919565b602082019050919050565b6000602082019050818103600083015261097e81610942565b9050919050565b7f4e487b7100000000000000000000000000000000000000000000000000000000600052603260045260246000fd5b6000602082840312156109ca576109c9610751565b5b60006109d8848285016107a4565b91505092915050565b7f4e487b7100000000000000000000000000000000000000000000000000000000600052601260045260246000fd5b7f4e487b7100000000000000000000000000000000000000000000000000000000600052601160045260246000fd5b6000610a4a8261081e565b9150610a558361081e565b925082610a6557610a646109e1565b5b828204905092915050565b600081905092915050565b50565b6000610a8b600083610a70565b9150610a9682610a7b565b600082019050919050565b6000610aac82610a7e565b9150819050919050565b7f4661696c656420746f2072656c65617365204574686572000000000000000000600082015250565b6000610aec601783610908565b9150610af782610ab6565b602082019050919050565b60006020820190508181036000830152610b1b81610adf565b9050919050565b6000610b2d8261081e565b91507fffffffffffffffffffffffffffffffffffffffffffffffffffffffffffffffff8203610b5f57610b5e610a10565b5b600182019050919050565b6000610b758261081e565b9150610b808361081e565b9250817fffffffffffffffffffffffffffffffffffffffffffffffffffffffffffffffff0483118215151615610bb957610bb8610a10565b5b828202905092915050565b610bcd8161077b565b82525050565b610bdc8161081e565b82525050565b6000604082019050610bf76000830185610bc4565b610c046020830184610bd3565b9392505050565b60008115159050919050565b610c2081610c0b565b8114610c2b57600080fd5b50565b600081519050610c3d81610c17565b92915050565b600060208284031215610c5957610c58610751565b5b6000610c6784828501610c2e565b91505092915050565b7f696e76616c69642073656e646572000000000000000000000000000000000000600082015250565b6000610ca6600e83610908565b9150610cb182610c70565b602082019050919050565b60006020820190508181036000830152610cd581610c99565b9050919050565b6000606082019050610cf16000830186610bc4565b610cfe6020830185610bc4565b610d0b6040830184610bd3565b949350505050565b6000610d1e8261081e565b9150610d298361081e565b9250827fffffffffffffffffffffffffffffffffffffffffffffffffffffffffffffffff03821115610d5e57610d5d610a10565b5b82820190509291505056fea2646970667358221220097859758da0677b61cf6ed317d4dac7a58cf7510759b87ae12855c8f52dc3f264736f6c634300080d0033",
  "immutableReferences": {},
  "source": "pragma solidity 0.8.13;\n\n/// @title  Token Split Contract\n\n/*  \n    *       @dev    This is a  smart contract that split ETHER and ERC 20 tokens to\n    *       addresses based on their shares allocation\n*/     \n\n\nimport \"./utils/IERC20.sol\";\n\ncontract TokenSplit {\n\n    fallback () external payable {\n\n    }\n\n    /// @dev mapping to store token shares allocated to an address\n\n    //mapping(address => mapping(address => uint256)) private _shares;   \n\n\n    /// @dev mapping the store the ether and erc20 token balances      \n\n    mapping(address => mapping(address => uint256)) private _tokenBalances;\n\n    /// @dev  declare the address of the splitter\n\n    address private splitter;\n\n    /// @dev  declare the address of the contract\n\n    address private _contractAddress;\n\n    /// @dev  declare the address of ether\n\n    address private _etherAddress;\n\n\n    /// @dev ToeknRecipeint struct is used to track the recipient and the allocation of shares of the recipient during split\n\n    struct TokenRecipient {\n\n        address _recipient;\n        uint256 _shareValue;\n\n    }\n\n\n    modifier onlySplitter() {\n\n        require(msg.sender == splitter, \"invalid sender\");\n        _;\n\n    }\n\n\n    constructor (address _splitter) {\n\n        splitter = _splitter;\n        _contractAddress = address(this);\n        _etherAddress = address(0);\n\n    }\n\n    /// @param  _tokenAddress is the address of the ERC20 token that will be deposited\n    /// @param  _amount is the amount of tokens to be deposited by the splitter\n    /// @notice IERC20 _tokenToDeposit = IERC20(_token). Creates an instance of the method of the token contract\n    /// @notice _tokenToDeposit.transferFrom. This contract must have been approved for successful function call\n\n    function depositToken(address _tokenAddress, uint256 _amount) external onlySplitter {\n\n        IERC20 _tokenToDeposit = IERC20(_tokenAddress);\n        _tokenToDeposit.transferFrom(msg.sender, _contractAddress, _amount);\n        _tokenBalances[_contractAddress][_tokenAddress] += _amount;\n\n    }\n\n    function depositEther() external payable onlySplitter {\n\n        _tokenBalances[_contractAddress][_etherAddress] += msg.value;\n\n    }\n\n    function splitToken(address _tokenAddress, TokenRecipient[] calldata _recipients, uint256 _amount) external {\n        \n        require(_tokenBalances[_contractAddress][_tokenAddress] >= _amount, \"insufficient amount to split\");\n\n        if (_tokenAddress == _etherAddress) {\n\n            for (uint256 index = 0; index < _recipients.length; index++) {\n\n                (bool sent, ) = payable(_recipients[index]._recipient).call{value: _recipients[index]._shareValue / 100}(\"\");\n                require(sent, \"Failed to release Ether\");\n\n            }\n        }\n\n        IERC20 _tokenToSplitFrom = IERC20(_tokenAddress);\n\n        for (uint256 index = 0; index < _recipients.length; index++) {\n\n            _tokenToSplitFrom.transfer(_recipients[index]._recipient, _amount * (_recipients[index]._shareValue / 100));\n\n        }\n\n    }\n\n    \n\n}",
  "sourcePath": "/home/komolehin/Documents/blockchain/Liquality Task/contracts/TokenSplit.sol",
  "compiler": {
    "name": "solc",
    "version": "0.8.13+commit.abaa5c0e.Emscripten.clang"
  },
  "schemaVersion": "3.4.6",
  "updatedAt": "2022-04-12T19:14:18.888Z",
  "devdoc": {
    "kind": "dev",
    "methods": {
      "depositToken(address,uint256)": {
        "params": {
          "_amount": "is the amount of tokens to be deposited by the splitter",
          "_tokenAddress": "is the address of the ERC20 token that will be deposited"
        }
      }
    },
    "stateVariables": {
      "_contractAddress": {
        "details": "declare the address of the contract"
      },
      "_etherAddress": {
        "details": "declare the address of ether"
      },
      "_tokenBalances": {
        "details": "mapping the store the ether and erc20 token balances      "
      },
      "splitter": {
        "details": "declare the address of the splitter"
      }
    },
    "version": 1
  },
  "userdoc": {
    "kind": "user",
    "methods": {
      "depositToken(address,uint256)": {
        "notice": "IERC20 _tokenToDeposit = IERC20(_token). Creates an instance of the method of the token contract_tokenToDeposit.transferFrom. This contract must have been approved for successful function call"
      }
    },
    "version": 1
  }
}